S01900005365636F6E645F636F6E74726F6C6C65722E737265630C
S11300000C942A000C9447000C9447000C9447006D
S11300100C9447000C94FE010C9447000C94470088
S11300200C9447000C9447000C9447000C94150260
S11300300C9447000C9447000C9447000C94470020
S11300400C9447000C9447000C9447000C94470010
S11300500C94470011241FBECFE5D8E0DEBFCDBF0E
S113006010E0A0E6B0E0E2ECFAE002C005900D92E8
S1130070A236B107D9F720E0A2E6B0E001C01D9294
S1130080A636B207E1F70E9449000C945F050C9470
S113009000000E94B7000E94570183E00E9475008F
S11300A00E94CB00EC010E946B01CA30D10518F00C
S11300B08A30910520F483E00E948100F1CFC4319D
S11300C0D10518F08431910520F483E00E94930057
S11300D0E7CF6E9710F04E9720F483E00E94A500BE
S11300E0DFCF83E00E947D00DBCF61E00E942C0221
S11300F0089561E00E94B802089560E00E94B80289
S11301000895CF93C82F0E9479002FEF81EE94E0D9
S1130110215080409040E1F700C000008C2F0E94E5
S11301207D00CF910895CF93C82F0E9479002FEFBF
S113013083EC99E0215080409040E1F700C000003A
S11301408C2F0E947D00CF910895CF93C82F0E94D9
S113015079002FEF85EA9EE0215080409040E1F73E
S113016000C000008C2F0E947D00CF9108958FB7AE
S113017080688FBF89B7816089BF61E084E10E9494
S11301802C0260E085E10E942C0213BE61E084E150
S11301900E94B80208954F925F926F927F928F925D
S11301A09F92AF92BF92CF92DF92EF92FF920F9302
S11301B01F93CF93DF9361E084E10E94B80285E34B
S11301C08A95F1F7000060E084E10E94B802C0E083
S11301D0D0E02EC085E10E944403882319F08130C9
S11301E0D9F026C0D13021F583B78E7F83BF83B782
S11301F08D7F83BF83B78B7F83BF1091640000E042
S113020082B72801480E511C612C712C812C912C31
S11302105401C1E0D0E00CC0D1110AC083B78E7F75
S113022083BF83B7826083BF83B78B7F83BFD1E0F3
S1130230C13081F6109265001092640012BE609184
S113024060007091610080E090E00E94260420E04C
S113025034E244EF59E40E9485036B017C01242DB0
S1130260352D462D572D682D792D8A2D9B2D0E94D5
S11302706304A70196010E94F20420E030E040E00C
S11302805FE30E94F2040E94F703CB01DF91CF9158
S11302901F910F91FF90EF90DF90CF90BF90AF90A0
S11302A09F908F907F906F905F904F9008958FB73D
S11302B080688FBF89B7806489BF61E086E10E944E
S11302C02C0260E087E10E942C0215BC61E086E10B
S11302D00E94B80208954F925F926F927F928F921C
S11302E09F92AF92BF92CF92DF92EF92FF920F93C1
S11302F01F93CF93DF9361E086E10E94B80285E308
S11303008A95F1F7000060E086E10E94B802C0E03F
S1130310D0E035C087E10E944403882319F081307E
S1130320E9F02BC0DD2359F1D13039F585B58E7F45
S113033085BD85B58D7F85BD85B58B7F85BD1091C8
S1130340620000E084B52801480E511C612C712C18
S1130350812C912C5401C1E0D0E00FC0DD2319F0B1
S1130360D13069F00AC085B58E7F85BD85B58260C0
S113037085BD85B58B7F85BDD1E0C13011F0C1301D
S113038049F6109263001092620012BE6091600000
S11303907091610080E090E00E94260420E034E245
S11303A044EF59E40E9485036B017C01242D352D13
S11303B0462D572D682D792D8A2D9B2D0E9463047F
S11303C0A70196010E94F20420E030E040E05FE3E0
S11303D00E94F2040E94F703CB01DF91CF911F9199
S11303E00F91FF90EF90DF90CF90BF90AF909F90D0
S11303F08F907F906F905F904F9008951F920F920F
S11304000FB60F9211248F939F9380916200909165
S11304106300019690936300809362009F918F9193
S11304200F900FBE0F901F9018951F920F920FB64A
S11304300F9211248F939F93809164009091650093
S1130440019690936500809364009F918F910F9023
S11304500FBE0F901F9018959DEC899F912D11242C
S1130460292F269526952695220F322F330F330FE9
S1130470230F821B282F892F869586958695813098
S113048019F130F08230E1F1833009F455C0089558
S1130490662319F0613069F008953AB381E090E081
S11304A002C0880F991F2A95E2F7809583238ABB9F
S11304B008953AB381E090E002C0880F991F2A950D
S11304C0E2F7832B8ABB0895662319F0613069F043
S11304D0089537B381E090E002C0880F991F2A95F0
S11304E0E2F78095832387BB089537B381E090E0DA
S11304F002C0880F991F2A95E2F7832B87BB0895C2
S1130500662319F0613069F0089534B381E090E016
S113051002C0880F991F2A95E2F78095832384BB34
S1130520089534B381E090E002C0880F991F2A95A2
S1130530E2F7832B84BB0895662319F0613069F0D8
S1130540089531B381E090E002C0880F991F2A9585
S1130550E2F78095832381BB089531B381E090E075
S113056002C0880F991F2A95E2F7832B81BB089557
S11305709DEC899F912D1124292F2695269526954A
S1130580220F322F330F330F230F821B282F892F73
S1130590869586958695813019F130F08230E1F1A7
S11305A0833009F455C00895662319F0613069F069
S11305B008953BB381E090E002C0880F991F2A950B
S11305C0E2F7809583238BBB08953BB381E090E0F1
S11305D002C0880F991F2A95E2F7832B8BBB0895DD
S11305E0662319F0613069F0089538B381E090E032
S11305F002C0880F991F2A95E2F78095832388BB50
S1130600089538B381E090E002C0880F991F2A95BD
S1130610E2F7832B88BB0895662319F0613069F0F3
S1130620089535B381E090E002C0880F991F2A95A0
S1130630E2F78095832385BB089535B381E090E08C
S113064002C0880F991F2A95E2F7832B85BB089572
S1130650662319F0613069F0089532B381E090E0C7
S113066002C0880F991F2A95E2F78095832382BBE5
S1130670089532B381E090E002C0880F991F2A9553
S1130680E2F7832B82BB08959DEC899F912D112461
S1130690292F269526952695220F322F330F330FB7
S11306A0230F821B282F892F869586958695813066
S11306B079F028F08230A9F08330E1F024C089B3C6
S11306C090E002C0959587952A95E2F78170089588
S11306D086B390E002C0959587952A95E2F78170DC
S11306E0089583B390E002C0959587952A95E2F723
S11306F08170089580B390E002C0959587952A95FE
S1130700E2F78170089580E008950E9499030C94A3
S1130710B8040E94B10458F00E94AA0440F029F4DD
S11307205F3F29F00C94A10451110C94EC040C9437
S1130730A7040E94C90468F39923B1F3552391F3E4
S1130740951B550BBB27AA2762177307840738F03C
S11307509F5F5F4F220F331F441FAA1FA9F335D099
S11307600E2E3AF0E0E832D091505040E695001C4D
S1130770CAF72BD0FE2F29D0660F771F881FBB1F07
S1130780261737074807AB07B0E809F0BB0B802DE5
S1130790BF01FF2793585F4F3AF09E3F510578F011
S11307A00C94A1040C94EC045F3FE4F3983ED4F35E
S11307B0869577956795B795F7959F5FC9F7880FE5
S11307C0911D9695879597F90895E1E0660F771F37
S11307D0881FBB1F621773078407BA0720F0621BC8
S11307E0730B840BBA0BEE1F88F7E09508950E94F3
S11307F0D10488F09F5798F0B92F9927B751B0F0DA
S1130800E1F0660F771F881F991F1AF0BA95C9F790
S113081014C0B13091F00E94EB04B1E008950C943F
S1130820EB04672F782F8827B85F39F0B93FCCF3F2
S1130830869577956795B395D9F73EF4909580950D
S1130840709561957F4F8F4F9F4F0895E89409C02D
S113085097FB3EF490958095709561957F4F8F4FEF
S11308609F4F9923A9F0F92F96E9BB279395F69505
S1130870879577956795B795F111F8CFFAF4BB0F83
S113088011F460FF1BC06F5F7F4F8F4F9F4F16C0E7
S1130890882311F096E911C0772321F09EE8872F71
S11308A0762F05C0662371F096E8862F70E060E02D
S11308B02AF09A95660F771F881FDAF7880F9695A6
S11308C0879597F90895E894F92F96EBFF2381F023
S11308D0121613061406440B9395F695879577958F
S11308E0679557954040FF23B9F71BC09927089592
S11308F0882351F49850D2F7872B762F652F542FE5
S1130900432F322F20E0B1F3121613061406440BC2
S113091088233AF09A95440F551F661F771F881F46
S1130920CAF755234AF4440F551F11F460FF04C05D
S11309306F5F7F4F8F4F9F4F880F9695879597F9DD
S1130940089597F99F6780E870E060E008959FEF4D
S113095080EC089500240A94161617061806090652
S1130960089500240A941216130614060506089521
S1130970092E0394000C11F4882352F0BB0F40F4A9
S1130980BF2B11F460FF04C06F5F7F4F8F4F9F4FE9
S1130990089557FD9058440F551F59F05F3F71F06B
S11309A04795880F97FB991F61F09F3F79F08795D2
S11309B00895121613061406551FF2CF4695F1DF5B
S11309C008C0161617061806991FF1CF86957105EB
S11309D0610508940895E894BB2766277727CB011F
S11309E097F908950E9405050C94B8040E94AA047E
S11309F038F00E94B10420F0952311F00C94A10466
S1130A000C94A70411240C94EC040E94C90470F300
S1130A10959FC1F3950F50E0551F629FF001729F9F
S1130A20BB27F00DB11D639FAA27F00DB11DAA1FAE
S1130A30649F6627B00DA11D661F829F2227B00DFB
S1130A40A11D621F739FB00DA11D621F839FA00D86
S1130A50611D221F749F3327A00D611D231F849FD6
S1130A60600D211D822F762F6A2F11249F5750402D
S1130A709AF0F1F088234AF0EE0FFF1FBB1F661FA8
S1130A80771F881F91505040A9F79E3F510580F071
S1130A900C94A1040C94EC045F3FE4F3983ED4F36B
S1130AA0869577956795B795F795E7959F5FC1F715
S1130AB0FE2B880F911D9695879597F90895F894C4
S1050AC0FFCF62
S1050AC2FC85AD
S9030000FC
